{
  "_format": "hh-sol-artifact-1",
  "contractName": "ReCraft",
  "sourceName": "contracts/ReCraft.sol",
  "abi": [
    {
      "inputs": [
        {
          "internalType": "address",
          "name": "_platformWallet",
          "type": "address"
        }
      ],
      "stateMutability": "nonpayable",
      "type": "constructor"
    },
    {
      "anonymous": false,
      "inputs": [
        {
          "indexed": true,
          "internalType": "uint256",
          "name": "donationId",
          "type": "uint256"
        },
        {
          "indexed": true,
          "internalType": "address",
          "name": "ngo",
          "type": "address"
        },
        {
          "indexed": false,
          "internalType": "uint256",
          "name": "timestamp",
          "type": "uint256"
        }
      ],
      "name": "DonationAccepted",
      "type": "event"
    },
    {
      "anonymous": false,
      "inputs": [
        {
          "indexed": true,
          "internalType": "uint256",
          "name": "donationId",
          "type": "uint256"
        },
        {
          "indexed": true,
          "internalType": "address",
          "name": "institution",
          "type": "address"
        },
        {
          "indexed": false,
          "internalType": "string",
          "name": "materialType",
          "type": "string"
        },
        {
          "indexed": false,
          "internalType": "uint256",
          "name": "quantity",
          "type": "uint256"
        },
        {
          "indexed": false,
          "internalType": "uint256",
          "name": "timestamp",
          "type": "uint256"
        }
      ],
      "name": "DonationCreated",
      "type": "event"
    },
    {
      "anonymous": false,
      "inputs": [
        {
          "indexed": true,
          "internalType": "uint256",
          "name": "productId",
          "type": "uint256"
        },
        {
          "indexed": true,
          "internalType": "uint256",
          "name": "donationId",
          "type": "uint256"
        },
        {
          "indexed": false,
          "internalType": "string",
          "name": "productName",
          "type": "string"
        },
        {
          "indexed": false,
          "internalType": "uint256",
          "name": "price",
          "type": "uint256"
        },
        {
          "indexed": false,
          "internalType": "address",
          "name": "ngo",
          "type": "address"
        },
        {
          "indexed": false,
          "internalType": "uint256",
          "name": "timestamp",
          "type": "uint256"
        }
      ],
      "name": "ProductCreated",
      "type": "event"
    },
    {
      "anonymous": false,
      "inputs": [
        {
          "indexed": true,
          "internalType": "uint256",
          "name": "productId",
          "type": "uint256"
        },
        {
          "indexed": true,
          "internalType": "address",
          "name": "buyer",
          "type": "address"
        },
        {
          "indexed": false,
          "internalType": "uint256",
          "name": "price",
          "type": "uint256"
        },
        {
          "indexed": false,
          "internalType": "uint256",
          "name": "timestamp",
          "type": "uint256"
        }
      ],
      "name": "ProductPurchased",
      "type": "event"
    },
    {
      "anonymous": false,
      "inputs": [
        {
          "indexed": true,
          "internalType": "uint256",
          "name": "productId",
          "type": "uint256"
        },
        {
          "indexed": false,
          "internalType": "address",
          "name": "ngo",
          "type": "address"
        },
        {
          "indexed": false,
          "internalType": "uint256",
          "name": "ngoAmount",
          "type": "uint256"
        },
        {
          "indexed": false,
          "internalType": "address",
          "name": "institution",
          "type": "address"
        },
        {
          "indexed": false,
          "internalType": "uint256",
          "name": "institutionAmount",
          "type": "uint256"
        },
        {
          "indexed": false,
          "internalType": "uint256",
          "name": "platformAmount",
          "type": "uint256"
        },
        {
          "indexed": false,
          "internalType": "uint256",
          "name": "timestamp",
          "type": "uint256"
        }
      ],
      "name": "RevenueDistributed",
      "type": "event"
    },
    {
      "inputs": [
        {
          "internalType": "uint256",
          "name": "_donationId",
          "type": "uint256"
        }
      ],
      "name": "acceptDonation",
      "outputs": [],
      "stateMutability": "nonpayable",
      "type": "function"
    },
    {
      "inputs": [
        {
          "internalType": "string",
          "name": "_materialType",
          "type": "string"
        },
        {
          "internalType": "uint256",
          "name": "_quantity",
          "type": "uint256"
        }
      ],
      "name": "createDonation",
      "outputs": [
        {
          "internalType": "uint256",
          "name": "",
          "type": "uint256"
        }
      ],
      "stateMutability": "nonpayable",
      "type": "function"
    },
    {
      "inputs": [
        {
          "internalType": "uint256",
          "name": "_donationId",
          "type": "uint256"
        },
        {
          "internalType": "string",
          "name": "_productName",
          "type": "string"
        },
        {
          "internalType": "string",
          "name": "_productType",
          "type": "string"
        },
        {
          "internalType": "uint256",
          "name": "_price",
          "type": "uint256"
        },
        {
          "internalType": "address",
          "name": "_artisan",
          "type": "address"
        }
      ],
      "name": "createProduct",
      "outputs": [
        {
          "internalType": "uint256",
          "name": "",
          "type": "uint256"
        }
      ],
      "stateMutability": "nonpayable",
      "type": "function"
    },
    {
      "inputs": [],
      "name": "donationCounter",
      "outputs": [
        {
          "internalType": "uint256",
          "name": "",
          "type": "uint256"
        }
      ],
      "stateMutability": "view",
      "type": "function"
    },
    {
      "inputs": [
        {
          "internalType": "uint256",
          "name": "",
          "type": "uint256"
        }
      ],
      "name": "donations",
      "outputs": [
        {
          "internalType": "uint256",
          "name": "id",
          "type": "uint256"
        },
        {
          "internalType": "address",
          "name": "institution",
          "type": "address"
        },
        {
          "internalType": "string",
          "name": "materialType",
          "type": "string"
        },
        {
          "internalType": "uint256",
          "name": "quantity",
          "type": "uint256"
        },
        {
          "internalType": "string",
          "name": "status",
          "type": "string"
        },
        {
          "internalType": "address",
          "name": "ngo",
          "type": "address"
        },
        {
          "internalType": "uint256",
          "name": "timestamp",
          "type": "uint256"
        }
      ],
      "stateMutability": "view",
      "type": "function"
    },
    {
      "inputs": [],
      "name": "getAvailableDonations",
      "outputs": [
        {
          "internalType": "uint256[]",
          "name": "",
          "type": "uint256[]"
        }
      ],
      "stateMutability": "view",
      "type": "function"
    },
    {
      "inputs": [],
      "name": "getAvailableProducts",
      "outputs": [
        {
          "internalType": "uint256[]",
          "name": "",
          "type": "uint256[]"
        }
      ],
      "stateMutability": "view",
      "type": "function"
    },
    {
      "inputs": [
        {
          "internalType": "uint256",
          "name": "_donationId",
          "type": "uint256"
        }
      ],
      "name": "getDonation",
      "outputs": [
        {
          "components": [
            {
              "internalType": "uint256",
              "name": "id",
              "type": "uint256"
            },
            {
              "internalType": "address",
              "name": "institution",
              "type": "address"
            },
            {
              "internalType": "string",
              "name": "materialType",
              "type": "string"
            },
            {
              "internalType": "uint256",
              "name": "quantity",
              "type": "uint256"
            },
            {
              "internalType": "string",
              "name": "status",
              "type": "string"
            },
            {
              "internalType": "address",
              "name": "ngo",
              "type": "address"
            },
            {
              "internalType": "uint256",
              "name": "timestamp",
              "type": "uint256"
            }
          ],
          "internalType": "struct ReCraft.Donation",
          "name": "",
          "type": "tuple"
        }
      ],
      "stateMutability": "view",
      "type": "function"
    },
    {
      "inputs": [
        {
          "internalType": "address",
          "name": "_institution",
          "type": "address"
        }
      ],
      "name": "getInstitutionDonations",
      "outputs": [
        {
          "internalType": "uint256[]",
          "name": "",
          "type": "uint256[]"
        }
      ],
      "stateMutability": "view",
      "type": "function"
    },
    {
      "inputs": [
        {
          "internalType": "address",
          "name": "_ngo",
          "type": "address"
        }
      ],
      "name": "getNGOProducts",
      "outputs": [
        {
          "internalType": "uint256[]",
          "name": "",
          "type": "uint256[]"
        }
      ],
      "stateMutability": "view",
      "type": "function"
    },
    {
      "inputs": [
        {
          "internalType": "uint256",
          "name": "_productId",
          "type": "uint256"
        }
      ],
      "name": "getProduct",
      "outputs": [
        {
          "components": [
            {
              "internalType": "uint256",
              "name": "id",
              "type": "uint256"
            },
            {
              "internalType": "uint256",
              "name": "donationId",
              "type": "uint256"
            },
            {
              "internalType": "string",
              "name": "productName",
              "type": "string"
            },
            {
              "internalType": "string",
              "name": "productType",
              "type": "string"
            },
            {
              "internalType": "uint256",
              "name": "price",
              "type": "uint256"
            },
            {
              "internalType": "address",
              "name": "ngo",
              "type": "address"
            },
            {
              "internalType": "address",
              "name": "artisan",
              "type": "address"
            },
            {
              "internalType": "address",
              "name": "institution",
              "type": "address"
            },
            {
              "internalType": "bool",
              "name": "sold",
              "type": "bool"
            },
            {
              "internalType": "uint256",
              "name": "timestamp",
              "type": "uint256"
            }
          ],
          "internalType": "struct ReCraft.Product",
          "name": "",
          "type": "tuple"
        }
      ],
      "stateMutability": "view",
      "type": "function"
    },
    {
      "inputs": [
        {
          "internalType": "address",
          "name": "",
          "type": "address"
        },
        {
          "internalType": "uint256",
          "name": "",
          "type": "uint256"
        }
      ],
      "name": "institutionDonations",
      "outputs": [
        {
          "internalType": "uint256",
          "name": "",
          "type": "uint256"
        }
      ],
      "stateMutability": "view",
      "type": "function"
    },
    {
      "inputs": [
        {
          "internalType": "address",
          "name": "",
          "type": "address"
        },
        {
          "internalType": "uint256",
          "name": "",
          "type": "uint256"
        }
      ],
      "name": "ngoProducts",
      "outputs": [
        {
          "internalType": "uint256",
          "name": "",
          "type": "uint256"
        }
      ],
      "stateMutability": "view",
      "type": "function"
    },
    {
      "inputs": [],
      "name": "platformWallet",
      "outputs": [
        {
          "internalType": "address",
          "name": "",
          "type": "address"
        }
      ],
      "stateMutability": "view",
      "type": "function"
    },
    {
      "inputs": [],
      "name": "productCounter",
      "outputs": [
        {
          "internalType": "uint256",
          "name": "",
          "type": "uint256"
        }
      ],
      "stateMutability": "view",
      "type": "function"
    },
    {
      "inputs": [
        {
          "internalType": "uint256",
          "name": "",
          "type": "uint256"
        }
      ],
      "name": "products",
      "outputs": [
        {
          "internalType": "uint256",
          "name": "id",
          "type": "uint256"
        },
        {
          "internalType": "uint256",
          "name": "donationId",
          "type": "uint256"
        },
        {
          "internalType": "string",
          "name": "productName",
          "type": "string"
        },
        {
          "internalType": "string",
          "name": "productType",
          "type": "string"
        },
        {
          "internalType": "uint256",
          "name": "price",
          "type": "uint256"
        },
        {
          "internalType": "address",
          "name": "ngo",
          "type": "address"
        },
        {
          "internalType": "address",
          "name": "artisan",
          "type": "address"
        },
        {
          "internalType": "address",
          "name": "institution",
          "type": "address"
        },
        {
          "internalType": "bool",
          "name": "sold",
          "type": "bool"
        },
        {
          "internalType": "uint256",
          "name": "timestamp",
          "type": "uint256"
        }
      ],
      "stateMutability": "view",
      "type": "function"
    },
    {
      "inputs": [
        {
          "internalType": "uint256",
          "name": "_productId",
          "type": "uint256"
        }
      ],
      "name": "purchaseProduct",
      "outputs": [],
      "stateMutability": "payable",
      "type": "function"
    }
  ],
  "bytecode": "0x608060405234801561001057600080fd5b50604051611fec380380611fec83398101604081905261002f9161005c565b600080546001600160a01b0319166001600160a01b0392909216919091178155600181905560025561008c565b60006020828403121561006e57600080fd5b81516001600160a01b038116811461008557600080fd5b9392505050565b611f518061009b6000396000f3fe6080604052600436106100fe5760003560e01c80637acc0b2011610095578063d375b5a411610064578063d375b5a4146102a0578063d8cd8f6b146102b5578063ef07a81f146102d5578063f8626af814610302578063fa2af9da1461033557600080fd5b80637acc0b20146101fd5780639ba4505814610233578063b9db15b414610253578063cca2b9541461028057600080fd5b80631f16653b116100d15780631f16653b1461019e57806338d187dd146101b457806338e76a03146101ca5780636a1e6577146101dd57600080fd5b80630b9d847e146101035780630ff4e2b414610125578063108de8e7146101505780631379fd811461017e575b600080fd5b34801561010f57600080fd5b5061012361011e3660046117e2565b61036d565b005b34801561013157600080fd5b5061013a610507565b60405161014791906117fb565b60405180910390f35b34801561015c57600080fd5b5061017061016b3660046118fe565b610614565b604051908152602001610147565b34801561018a57600080fd5b5061013a610199366004611986565b61099e565b3480156101aa57600080fd5b5061017060025481565b3480156101c057600080fd5b5061017060015481565b6101236101d83660046117e2565b610a0a565b3480156101e957600080fd5b506101706101f83660046119a8565b610bb9565b34801561020957600080fd5b5061021d6102183660046117e2565b610d32565b6040516101479a99989796959493929190611a33565b34801561023f57600080fd5b5061017061024e366004611aa8565b610ea6565b34801561025f57600080fd5b5061027361026e3660046117e2565b610ed7565b6040516101479190611ad2565b34801561028c57600080fd5b5061017061029b366004611aa8565b6110fb565b3480156102ac57600080fd5b5061013a611117565b3480156102c157600080fd5b5061013a6102d0366004611986565b6112b5565b3480156102e157600080fd5b506102f56102f03660046117e2565b61131f565b6040516101479190611ba1565b34801561030e57600080fd5b5061032261031d3660046117e2565b6114fd565b6040516101479796959493929190611c29565b34801561034157600080fd5b50600054610355906001600160a01b031681565b6040516001600160a01b039091168152602001610147565b60008111801561037f57506001548111155b6103c65760405162461bcd60e51b8152602060048201526013602482015272125b9d985b1a5908191bdb985d1a5bdb881251606a1b60448201526064015b60405180910390fd5b6040805180820182526009815268417661696c61626c6560b81b6020918201526000838152600390915281902090517fb8cd97c047a11c48778228c38d769e1137628c57d635c6d0777138618f4dddb69161042691600490910190611cbb565b6040518091039020146104745760405162461bcd60e51b8152602060048201526016602482015275446f6e6174696f6e206e6f7420617661696c61626c6560501b60448201526064016103bd565b60008181526003602081815260408084206005810180546001600160a01b03191633179055815180830190925260088252671058d8d95c1d195960c21b82840152938590529190526004909101906104cc9082611d80565b50604051428152339082907f8ca60249ecfcb4a15e3d7431c600be248dfd9ed0d3cd7c71ff8c8cdf7e56939d9060200160405180910390a350565b6060600060015b600254811161055757600081815260046020526040902060070154600160a01b900460ff16610545578161054181611e56565b9250505b8061054f81611e56565b91505061050e565b5060008167ffffffffffffffff8111156105735761057361183f565b60405190808252806020026020018201604052801561059c578160200160208202803683370190505b509050600060015b600254811161060b57600081815260046020526040902060070154600160a01b900460ff166105f957808383815181106105e0576105e0611e6f565b6020908102919091010152816105f581611e56565b9250505b8061060381611e56565b9150506105a4565b50909392505050565b6000808611801561062757506001548611155b6106695760405162461bcd60e51b8152602060048201526013602482015272125b9d985b1a5908191bdb985d1a5bdb881251606a1b60448201526064016103bd565b6000868152600360205260409020600501546001600160a01b031633146106e45760405162461bcd60e51b815260206004820152602960248201527f4f6e6c79204e474f20746861742061636365707465642063616e20637265617460448201526819481c1c9bd91d58dd60ba1b60648201526084016103bd565b60408051808201825260088152671058d8d95c1d195960c21b6020918201526000888152600390915281902090517f71fb55c0cb0fd74783d23c772b2f895cb0c286e8e0fab4f642555d8b1ffce2529161074391600490910190611cbb565b6040518091039020146107a45760405162461bcd60e51b815260206004820152602360248201527f446f6e6174696f6e206d75737420626520696e2041636365707465642073746160448201526274757360e81b60648201526084016103bd565b600280549060006107b483611e56565b909155505060408051610140810182526002805480835260208084018b81528486018b8152606086018b9052608086018a90523360a08701526001600160a01b0389811660c088015260008e81526003855288812060019081015490921660e08901526101008801819052426101208901529485526004909352959092208451815591519082015592519192919082019061084f9082611d80565b50606082015160038201906108649082611d80565b50608082015160048083019190915560a08301516005830180546001600160a01b039283166001600160a01b03199182161790915560c085015160068086018054928516929093169190911790915560e0850151600780860180546101008901511515600160a01b026001600160a81b031990911693909516929092179390931790556101209094015160089093019290925533600090815260209384526040808220600254815460018101835591845286842090910155805180820182529384526610dc98599d195960ca1b848601528a82526003909452929092209091019061094f9082611d80565b50856002547f4547f83a7ac186ba2bfe88575f4318b08964a099be877532c767173c8153e8d9878633426040516109899493929190611e85565b60405180910390a35060025495945050505050565b6001600160a01b0381166000908152600560209081526040918290208054835181840281018401909452808452606093928301828280156109fe57602002820191906000526020600020905b8154815260200190600101908083116109ea575b50505050509050919050565b600081118015610a1c57506002548111155b610a5d5760405162461bcd60e51b8152602060048201526012602482015271125b9d985b1a59081c1c9bd91d58dd08125160721b60448201526064016103bd565b600081815260046020526040902060070154600160a01b900460ff1615610abd5760405162461bcd60e51b8152602060048201526014602482015273141c9bd91d58dd08185b1c9958591e481cdbdb1960621b60448201526064016103bd565b60008181526004602081905260409091200154341015610b165760405162461bcd60e51b8152602060048201526014602482015273125b9cdd59999a58da595b9d081c185e5b595b9d60621b60448201526064016103bd565b600081815260046020818152604080842060078101805460ff60a01b1916600160a01b179055815180830183528481526314dbdb1960e21b81850152600182015486526003909352932090910190610b6e9082611d80565b5060408051348152426020820152339184917f7d3c39a6cce20f6949eff0833a4d54fca734dc7c6027773d8885e7faeac98a95910160405180910390a3610bb5823461165c565b5050565b6001805460009182610bca83611e56565b90915550506040805160e0810182526001805480835233602080850191825284860189815260608601899052865180880188526009815268417661696c61626c6560b81b818401526080870152600060a087018190524260c088015293845260039091529490912083518155905191810180546001600160a01b0319166001600160a01b039093169290921790915591519091906002820190610c6d9082611d80565b506060820151600382015560808201516004820190610c8c9082611d80565b5060a0820151600582810180546001600160a01b0319166001600160a01b039093169290921790915560c0909201516006909101553360008181526020928352604080822060018054825480830184559285529590932001939093555491519091907ffdf188e25033341e781815228fb7a74c59e2a29462e3bd9728bee464092d2b4d90610d1f90879087904290611ebd565b60405180910390a3506001545b92915050565b60046020526000908152604090208054600182015460028301805492939192610d5a90611c81565b80601f0160208091040260200160405190810160405280929190818152602001828054610d8690611c81565b8015610dd35780601f10610da857610100808354040283529160200191610dd3565b820191906000526020600020905b815481529060010190602001808311610db657829003601f168201915b505050505090806003018054610de890611c81565b80601f0160208091040260200160405190810160405280929190818152602001828054610e1490611c81565b8015610e615780601f10610e3657610100808354040283529160200191610e61565b820191906000526020600020905b815481529060010190602001808311610e4457829003601f168201915b505050506004830154600584015460068501546007860154600890960154949592946001600160a01b0392831694509082169291821691600160a01b900460ff16908a565b60066020528160005260406000208181548110610ec257600080fd5b90600052602060002001600091509150505481565b610f4a604051806101400160405280600081526020016000815260200160608152602001606081526020016000815260200160006001600160a01b0316815260200160006001600160a01b0316815260200160006001600160a01b03168152602001600015158152602001600081525090565b60046000838152602001908152602001600020604051806101400160405290816000820154815260200160018201548152602001600282018054610f8d90611c81565b80601f0160208091040260200160405190810160405280929190818152602001828054610fb990611c81565b80156110065780601f10610fdb57610100808354040283529160200191611006565b820191906000526020600020905b815481529060010190602001808311610fe957829003601f168201915b5050505050815260200160038201805461101f90611c81565b80601f016020809104026020016040519081016040528092919081815260200182805461104b90611c81565b80156110985780601f1061106d57610100808354040283529160200191611098565b820191906000526020600020905b81548152906001019060200180831161107b57829003601f168201915b50505091835250506004820154602082015260058201546001600160a01b03908116604083015260068301548116606083015260078301549081166080830152600160a01b900460ff16151560a082015260089091015460c09091015292915050565b60056020528160005260406000208181548110610ec257600080fd5b6060600060015b60015481116111b4576040805180820182526009815268417661696c61626c6560b81b6020918201526000838152600390915281902090517fb8cd97c047a11c48778228c38d769e1137628c57d635c6d0777138618f4dddb69161118791600490910190611cbb565b6040518091039020036111a2578161119e81611e56565b9250505b806111ac81611e56565b91505061111e565b5060008167ffffffffffffffff8111156111d0576111d061183f565b6040519080825280602002602001820160405280156111f9578160200160208202803683370190505b509050600060015b600154811161060b576040805180820182526009815268417661696c61626c6560b81b6020918201526000838152600390915281902090517fb8cd97c047a11c48778228c38d769e1137628c57d635c6d0777138618f4dddb69161126a91600490910190611cbb565b6040518091039020036112a3578083838151811061128a5761128a611e6f565b60209081029190910101528161129f81611e56565b9250505b806112ad81611e56565b915050611201565b6001600160a01b0381166000908152600660209081526040918290208054835181840281018401909452808452606093928301828280156109fe57602002820191906000526020600020908154815260200190600101908083116109ea5750505050509050919050565b6113716040518060e001604052806000815260200160006001600160a01b0316815260200160608152602001600081526020016060815260200160006001600160a01b03168152602001600081525090565b600082815260036020908152604091829020825160e0810184528154815260018201546001600160a01b03169281019290925260028101805492939192918401916113bb90611c81565b80601f01602080910402602001604051908101604052809291908181526020018280546113e790611c81565b80156114345780601f1061140957610100808354040283529160200191611434565b820191906000526020600020905b81548152906001019060200180831161141757829003601f168201915b505050505081526020016003820154815260200160048201805461145790611c81565b80601f016020809104026020016040519081016040528092919081815260200182805461148390611c81565b80156114d05780601f106114a5576101008083540402835291602001916114d0565b820191906000526020600020905b8154815290600101906020018083116114b357829003601f168201915b505050918352505060058201546001600160a01b0316602082015260069091015460409091015292915050565b60036020526000908152604090208054600182015460028301805492936001600160a01b039092169261152f90611c81565b80601f016020809104026020016040519081016040528092919081815260200182805461155b90611c81565b80156115a85780601f1061157d576101008083540402835291602001916115a8565b820191906000526020600020905b81548152906001019060200180831161158b57829003601f168201915b5050505050908060030154908060040180546115c390611c81565b80601f01602080910402602001604051908101604052809291908181526020018280546115ef90611c81565b801561163c5780601f106116115761010080835404028352916020019161163c565b820191906000526020600020905b81548152906001019060200180831161161f57829003601f168201915b50505050600583015460069093015491926001600160a01b031691905087565b6000828152600460205260408120906064611678846046611ee2565b6116829190611ef9565b905060006064611693856014611ee2565b61169d9190611ef9565b9050600060646116ae86600a611ee2565b6116b89190611ef9565b60058501546040519192506001600160a01b03169084156108fc029085906000818181858888f193505050501580156116f5573d6000803e3d6000fd5b5060078401546040516001600160a01b039091169083156108fc029084906000818181858888f19350505050158015611732573d6000803e3d6000fd5b50600080546040516001600160a01b039091169183156108fc02918491818181858888f1935050505015801561176c573d6000803e3d6000fd5b5060058401546007850154604080516001600160a01b03938416815260208101879052929091169082015260608101839052608081018290524260a082015286907fd9e9dd3a721f46c873bc4556872314801de680aec6e4d2266dc01dc8e3f5f8d09060c00160405180910390a2505050505050565b6000602082840312156117f457600080fd5b5035919050565b6020808252825182820181905260009190848201906040850190845b8181101561183357835183529284019291840191600101611817565b50909695505050505050565b634e487b7160e01b600052604160045260246000fd5b600082601f83011261186657600080fd5b813567ffffffffffffffff808211156118815761188161183f565b604051601f8301601f19908116603f011681019082821181831017156118a9576118a961183f565b816040528381528660208588010111156118c257600080fd5b836020870160208301376000602085830101528094505050505092915050565b80356001600160a01b03811681146118f957600080fd5b919050565b600080600080600060a0868803121561191657600080fd5b85359450602086013567ffffffffffffffff8082111561193557600080fd5b61194189838a01611855565b9550604088013591508082111561195757600080fd5b5061196488828901611855565b9350506060860135915061197a608087016118e2565b90509295509295909350565b60006020828403121561199857600080fd5b6119a1826118e2565b9392505050565b600080604083850312156119bb57600080fd5b823567ffffffffffffffff8111156119d257600080fd5b6119de85828601611855565b95602094909401359450505050565b6000815180845260005b81811015611a13576020818501810151868301820152016119f7565b506000602082860101526020601f19601f83011685010191505092915050565b60006101408c83528b6020840152806040840152611a538184018c6119ed565b90508281036060840152611a67818b6119ed565b608084019990995250506001600160a01b0395861660a082015293851660c08501529190931660e08301529115156101008201526101200152949350505050565b60008060408385031215611abb57600080fd5b611ac4836118e2565b946020939093013593505050565b60208152815160208201526020820151604082015260006040830151610140806060850152611b056101608501836119ed565b91506060850151601f19858403016080860152611b2283826119ed565b925050608085015160a085015260a0850151611b4960c08601826001600160a01b03169052565b5060c08501516001600160a01b03811660e08601525060e0850151610100611b7b818701836001600160a01b03169052565b8601519050610120611b908682018315159052565b959095015193019290925250919050565b60208082528251828201528201516001600160a01b0390811660408084019190915283015160e06060840152600091611bde6101008501836119ed565b9150606085015160808501526080850151601f198584030160a0860152611c0583826119ed565b9250508060a08601511660c08501525060c084015160e08401528091505092915050565b878152600060018060a01b03808916602084015260e06040840152611c5160e08401896119ed565b8760608501528381036080850152611c6981886119ed565b9590911660a0840152505060c0015295945050505050565b600181811c90821680611c9557607f821691505b602082108103611cb557634e487b7160e01b600052602260045260246000fd5b50919050565b6000808354611cc981611c81565b60018281168015611ce15760018114611cf657611d25565b60ff1984168752821515830287019450611d25565b8760005260208060002060005b85811015611d1c5781548a820152908401908201611d03565b50505082870194505b50929695505050505050565b601f821115611d7b57600081815260208120601f850160051c81016020861015611d585750805b601f850160051c820191505b81811015611d7757828155600101611d64565b5050505b505050565b815167ffffffffffffffff811115611d9a57611d9a61183f565b611dae81611da88454611c81565b84611d31565b602080601f831160018114611de35760008415611dcb5750858301515b600019600386901b1c1916600185901b178555611d77565b600085815260208120601f198616915b82811015611e1257888601518255948401946001909101908401611df3565b5085821015611e305787850151600019600388901b60f8161c191681555b5050505050600190811b01905550565b634e487b7160e01b600052601160045260246000fd5b600060018201611e6857611e68611e40565b5060010190565b634e487b7160e01b600052603260045260246000fd5b608081526000611e9860808301876119ed565b6020830195909552506001600160a01b03929092166040830152606090910152919050565b606081526000611ed060608301866119ed565b60208301949094525060400152919050565b8082028115828204841417610d2c57610d2c611e40565b600082611f1657634e487b7160e01b600052601260045260246000fd5b50049056fea264697066735822122037142b14a57b8801b75ceae1bcbb1cd613f03a5a428732808a9013cd1ee7610d64736f6c63430008130033",
  "linkReferences": {},
  "deployedLinkReferences": {}
}